{
  "_format": "hh-sol-artifact-1",
  "contractName": "DegenToken",
  "sourceName": "contracts/DegenGamingToken.sol",
  "abi": [
    {
      "inputs": [],
      "stateMutability": "nonpayable",
      "type": "constructor"
    },
    {
      "anonymous": false,
      "inputs": [
        {
          "indexed": true,
          "internalType": "address",
          "name": "owner",
          "type": "address"
        },
        {
          "indexed": true,
          "internalType": "address",
          "name": "spender",
          "type": "address"
        },
        {
          "indexed": false,
          "internalType": "uint256",
          "name": "value",
          "type": "uint256"
        }
      ],
      "name": "Approval",
      "type": "event"
    },
    {
      "anonymous": false,
      "inputs": [
        {
          "indexed": true,
          "internalType": "address",
          "name": "previousOwner",
          "type": "address"
        },
        {
          "indexed": true,
          "internalType": "address",
          "name": "newOwner",
          "type": "address"
        }
      ],
      "name": "OwnershipTransferred",
      "type": "event"
    },
    {
      "anonymous": false,
      "inputs": [
        {
          "indexed": true,
          "internalType": "address",
          "name": "from",
          "type": "address"
        },
        {
          "indexed": true,
          "internalType": "address",
          "name": "to",
          "type": "address"
        },
        {
          "indexed": false,
          "internalType": "uint256",
          "name": "value",
          "type": "uint256"
        }
      ],
      "name": "Transfer",
      "type": "event"
    },
    {
      "inputs": [
        {
          "internalType": "address",
          "name": "owner",
          "type": "address"
        },
        {
          "internalType": "address",
          "name": "spender",
          "type": "address"
        }
      ],
      "name": "allowance",
      "outputs": [
        {
          "internalType": "uint256",
          "name": "",
          "type": "uint256"
        }
      ],
      "stateMutability": "view",
      "type": "function"
    },
    {
      "inputs": [
        {
          "internalType": "address",
          "name": "spender",
          "type": "address"
        },
        {
          "internalType": "uint256",
          "name": "amount",
          "type": "uint256"
        }
      ],
      "name": "approve",
      "outputs": [
        {
          "internalType": "bool",
          "name": "",
          "type": "bool"
        }
      ],
      "stateMutability": "nonpayable",
      "type": "function"
    },
    {
      "inputs": [
        {
          "internalType": "address",
          "name": "account",
          "type": "address"
        }
      ],
      "name": "balanceOf",
      "outputs": [
        {
          "internalType": "uint256",
          "name": "",
          "type": "uint256"
        }
      ],
      "stateMutability": "view",
      "type": "function"
    },
    {
      "inputs": [
        {
          "internalType": "uint256",
          "name": "amount",
          "type": "uint256"
        }
      ],
      "name": "burnTokens",
      "outputs": [],
      "stateMutability": "nonpayable",
      "type": "function"
    },
    {
      "inputs": [],
      "name": "decimals",
      "outputs": [
        {
          "internalType": "uint8",
          "name": "",
          "type": "uint8"
        }
      ],
      "stateMutability": "pure",
      "type": "function"
    },
    {
      "inputs": [
        {
          "internalType": "address",
          "name": "spender",
          "type": "address"
        },
        {
          "internalType": "uint256",
          "name": "subtractedValue",
          "type": "uint256"
        }
      ],
      "name": "decreaseAllowance",
      "outputs": [
        {
          "internalType": "bool",
          "name": "",
          "type": "bool"
        }
      ],
      "stateMutability": "nonpayable",
      "type": "function"
    },
    {
      "inputs": [],
      "name": "getBalance",
      "outputs": [
        {
          "internalType": "uint256",
          "name": "",
          "type": "uint256"
        }
      ],
      "stateMutability": "view",
      "type": "function"
    },
    {
      "inputs": [
        {
          "internalType": "address",
          "name": "spender",
          "type": "address"
        },
        {
          "internalType": "uint256",
          "name": "addedValue",
          "type": "uint256"
        }
      ],
      "name": "increaseAllowance",
      "outputs": [
        {
          "internalType": "bool",
          "name": "",
          "type": "bool"
        }
      ],
      "stateMutability": "nonpayable",
      "type": "function"
    },
    {
      "inputs": [
        {
          "internalType": "address",
          "name": "to",
          "type": "address"
        },
        {
          "internalType": "uint256",
          "name": "amount",
          "type": "uint256"
        }
      ],
      "name": "mint",
      "outputs": [],
      "stateMutability": "nonpayable",
      "type": "function"
    },
    {
      "inputs": [],
      "name": "name",
      "outputs": [
        {
          "internalType": "string",
          "name": "",
          "type": "string"
        }
      ],
      "stateMutability": "view",
      "type": "function"
    },
    {
      "inputs": [],
      "name": "owner",
      "outputs": [
        {
          "internalType": "address",
          "name": "",
          "type": "address"
        }
      ],
      "stateMutability": "view",
      "type": "function"
    },
    {
      "inputs": [
        {
          "internalType": "uint8",
          "name": "num",
          "type": "uint8"
        }
      ],
      "name": "redeemTokens",
      "outputs": [
        {
          "internalType": "string",
          "name": "",
          "type": "string"
        }
      ],
      "stateMutability": "nonpayable",
      "type": "function"
    },
    {
      "inputs": [],
      "name": "renounceOwnership",
      "outputs": [],
      "stateMutability": "nonpayable",
      "type": "function"
    },
    {
      "inputs": [],
      "name": "storeItems",
      "outputs": [
        {
          "internalType": "string",
          "name": "",
          "type": "string"
        }
      ],
      "stateMutability": "view",
      "type": "function"
    },
    {
      "inputs": [],
      "name": "symbol",
      "outputs": [
        {
          "internalType": "string",
          "name": "",
          "type": "string"
        }
      ],
      "stateMutability": "view",
      "type": "function"
    },
    {
      "inputs": [],
      "name": "totalSupply",
      "outputs": [
        {
          "internalType": "uint256",
          "name": "",
          "type": "uint256"
        }
      ],
      "stateMutability": "view",
      "type": "function"
    },
    {
      "inputs": [
        {
          "internalType": "address",
          "name": "recipient",
          "type": "address"
        },
        {
          "internalType": "uint256",
          "name": "amount",
          "type": "uint256"
        }
      ],
      "name": "transfer",
      "outputs": [
        {
          "internalType": "bool",
          "name": "",
          "type": "bool"
        }
      ],
      "stateMutability": "nonpayable",
      "type": "function"
    },
    {
      "inputs": [
        {
          "internalType": "address",
          "name": "from",
          "type": "address"
        },
        {
          "internalType": "address",
          "name": "to",
          "type": "address"
        },
        {
          "internalType": "uint256",
          "name": "amount",
          "type": "uint256"
        }
      ],
      "name": "transferFrom",
      "outputs": [
        {
          "internalType": "bool",
          "name": "",
          "type": "bool"
        }
      ],
      "stateMutability": "nonpayable",
      "type": "function"
    },
    {
      "inputs": [
        {
          "internalType": "address",
          "name": "newOwner",
          "type": "address"
        }
      ],
      "name": "transferOwnership",
      "outputs": [],
      "stateMutability": "nonpayable",
      "type": "function"
    }
  ],
  "bytecode": "0x608060405233600660006101000a81548173ffffffffffffffffffffffffffffffffffffffff021916908373ffffffffffffffffffffffffffffffffffffffff1602179055506040518060e0016040528060b381526020016200280660b39139600790816200006f91906200047e565b503480156200007d57600080fd5b506040518060400160405280601281526020017f446567656e2047616d696e6720546f6b656e00000000000000000000000000008152506040518060400160405280600381526020017f44475400000000000000000000000000000000000000000000000000000000008152508160039081620000fb91906200047e565b5080600490816200010d91906200047e565b50505062000130620001246200013660201b60201c565b6200013e60201b60201c565b62000565565b600033905090565b6000600560009054906101000a900473ffffffffffffffffffffffffffffffffffffffff16905081600560006101000a81548173ffffffffffffffffffffffffffffffffffffffff021916908373ffffffffffffffffffffffffffffffffffffffff1602179055508173ffffffffffffffffffffffffffffffffffffffff168173ffffffffffffffffffffffffffffffffffffffff167f8be0079c531659141344cd1fd0a4f28419497f9722a3daafe3b4186f6b6457e060405160405180910390a35050565b600081519050919050565b7f4e487b7100000000000000000000000000000000000000000000000000000000600052604160045260246000fd5b7f4e487b7100000000000000000000000000000000000000000000000000000000600052602260045260246000fd5b600060028204905060018216806200028657607f821691505b6020821081036200029c576200029b6200023e565b5b50919050565b60008190508160005260206000209050919050565b60006020601f8301049050919050565b600082821b905092915050565b600060088302620003067fffffffffffffffffffffffffffffffffffffffffffffffffffffffffffffffff82620002c7565b620003128683620002c7565b95508019841693508086168417925050509392505050565b6000819050919050565b6000819050919050565b60006200035f6200035962000353846200032a565b62000334565b6200032a565b9050919050565b6000819050919050565b6200037b836200033e565b620003936200038a8262000366565b848454620002d4565b825550505050565b600090565b620003aa6200039b565b620003b781848462000370565b505050565b5b81811015620003df57620003d3600082620003a0565b600181019050620003bd565b5050565b601f8211156200042e57620003f881620002a2565b6200040384620002b7565b8101602085101562000413578190505b6200042b6200042285620002b7565b830182620003bc565b50505b505050565b600082821c905092915050565b6000620004536000198460080262000433565b1980831691505092915050565b60006200046e838362000440565b9150826002028217905092915050565b620004898262000204565b67ffffffffffffffff811115620004a557620004a46200020f565b5b620004b182546200026d565b620004be828285620003e3565b600060209050601f831160018114620004f65760008415620004e1578287015190505b620004ed858262000460565b8655506200055d565b601f1984166200050686620002a2565b60005b82811015620005305784890151825560018201915060208501945060208101905062000509565b868310156200055057848901516200054c601f89168262000440565b8355505b6001600288020188555050505b505050505050565b61229180620005756000396000f3fe608060405234801561001057600080fd5b50600436106101215760003560e01c80636d1b229d116100ad578063a457c2d711610071578063a457c2d71461030c578063a9059cbb1461033c578063baefdc1f1461036c578063dd62ed3e1461038a578063f2fde38b146103ba57610121565b80636d1b229d1461027a57806370a0823114610296578063715018a6146102c65780638da5cb5b146102d057806395d89b41146102ee57610121565b806323b872dd116100f457806323b872dd146101b0578063313ce567146101e057806339509351146101fe57806340c10f191461022e57806350aed53e1461024a57610121565b806306fdde0314610126578063095ea7b31461014457806312065fe01461017457806318160ddd14610192575b600080fd5b61012e6103d6565b60405161013b9190611695565b60405180910390f35b61015e60048036038101906101599190611750565b610468565b60405161016b91906117ab565b60405180910390f35b61017c61048b565b60405161018991906117d5565b60405180910390f35b61019a61050c565b6040516101a791906117d5565b60405180910390f35b6101ca60048036038101906101c591906117f0565b610516565b6040516101d791906117ab565b60405180910390f35b6101e8610545565b6040516101f5919061185f565b60405180910390f35b61021860048036038101906102139190611750565b61054a565b60405161022591906117ab565b60405180910390f35b61024860048036038101906102439190611750565b610581565b005b610264600480360381019061025f91906118a6565b610597565b6040516102719190611695565b60405180910390f35b610294600480360381019061028f91906118d3565b6108c6565b005b6102b060048036038101906102ab9190611900565b6108d3565b6040516102bd91906117d5565b60405180910390f35b6102ce61091b565b005b6102d861092f565b6040516102e5919061193c565b60405180910390f35b6102f6610959565b6040516103039190611695565b60405180910390f35b61032660048036038101906103219190611750565b6109eb565b60405161033391906117ab565b60405180910390f35b61035660048036038101906103519190611750565b610a62565b60405161036391906117ab565b60405180910390f35b610374610b29565b6040516103819190611695565b60405180910390f35b6103a4600480360381019061039f9190611957565b610bb7565b6040516103b191906117d5565b60405180910390f35b6103d460048036038101906103cf9190611900565b610c3e565b005b6060600380546103e5906119c6565b80601f0160208091040260200160405190810160405280929190818152602001828054610411906119c6565b801561045e5780601f106104335761010080835404028352916020019161045e565b820191906000526020600020905b81548152906001019060200180831161044157829003601f168201915b5050505050905090565b600080610473610cc1565b9050610480818585610cc9565b600191505092915050565b60003073ffffffffffffffffffffffffffffffffffffffff166370a08231336040518263ffffffff1660e01b81526004016104c6919061193c565b602060405180830381865afa1580156104e3573d6000803e3d6000fd5b505050506040513d601f19601f820116820180604052508101906105079190611a0c565b905090565b6000600254905090565b600080610521610cc1565b905061052e858285610e92565b610539858585610f1e565b60019150509392505050565b600090565b600080610555610cc1565b90506105768185856105678589610bb7565b6105719190611a68565b610cc9565b600191505092915050565b610589611194565b6105938282611212565b5050565b606060018260ff16036106545760646105af336108d3565b10156105f0576040517f08c379a00000000000000000000000000000000000000000000000000000000081526004016105e790611b0e565b60405180910390fd5b600061061f600660009054906101000a900473ffffffffffffffffffffffffffffffffffffffff166064610a62565b9050600115158115150361064e5760405180606001604052806032815260200161222a603291399150506108c1565b50610888565b60028260ff160361070f5760c861066a336108d3565b10156106ab576040517f08c379a00000000000000000000000000000000000000000000000000000000081526004016106a290611b0e565b60405180910390fd5b60006106da600660009054906101000a900473ffffffffffffffffffffffffffffffffffffffff1660c8610a62565b90506001151581151503610709576040518060600160405280603581526020016121f5603591399150506108c1565b50610887565b60038260ff16036107cc5761012c610726336108d3565b1015610767576040517f08c379a000000000000000000000000000000000000000000000000000000000815260040161075e90611b0e565b60405180910390fd5b6000610797600660009054906101000a900473ffffffffffffffffffffffffffffffffffffffff1661012c610a62565b905060011515811515036107c657604051806060016040528060318152602001612195603191399150506108c1565b50610886565b60048260ff1603610885576101906107e3336108d3565b1015610824576040517f08c379a000000000000000000000000000000000000000000000000000000000815260040161081b90611b0e565b60405180910390fd5b6000610854600660009054906101000a900473ffffffffffffffffffffffffffffffffffffffff16610190610a62565b90506001151581151503610883576040518060600160405280602f81526020016121c6602f91399150506108c1565b505b5b5b5b6040518060400160405280600d81526020017f496e76616c696420696e7075740000000000000000000000000000000000000081525090505b919050565b6108d03382611368565b50565b60008060008373ffffffffffffffffffffffffffffffffffffffff1673ffffffffffffffffffffffffffffffffffffffff168152602001908152602001600020549050919050565b610923611194565b61092d6000611535565b565b6000600560009054906101000a900473ffffffffffffffffffffffffffffffffffffffff16905090565b606060048054610968906119c6565b80601f0160208091040260200160405190810160405280929190818152602001828054610994906119c6565b80156109e15780601f106109b6576101008083540402835291602001916109e1565b820191906000526020600020905b8154815290600101906020018083116109c457829003601f168201915b5050505050905090565b6000806109f6610cc1565b90506000610a048286610bb7565b905083811015610a49576040517f08c379a0000000000000000000000000000000000000000000000000000000008152600401610a4090611ba0565b60405180910390fd5b610a568286868403610cc9565b60019250505092915050565b600081610a6e336108d3565b1015610aaf576040517f08c379a0000000000000000000000000000000000000000000000000000000008152600401610aa690611b0e565b60405180910390fd5b610aba338484610f1e565b8273ffffffffffffffffffffffffffffffffffffffff163373ffffffffffffffffffffffffffffffffffffffff167fddf252ad1be2c89b69c2b068fc378daa952ba7f163c4a11628f55a4df523b3ef84604051610b1791906117d5565b60405180910390a36001905092915050565b60078054610b36906119c6565b80601f0160208091040260200160405190810160405280929190818152602001828054610b62906119c6565b8015610baf5780601f10610b8457610100808354040283529160200191610baf565b820191906000526020600020905b815481529060010190602001808311610b9257829003601f168201915b505050505081565b6000600160008473ffffffffffffffffffffffffffffffffffffffff1673ffffffffffffffffffffffffffffffffffffffff16815260200190815260200160002060008373ffffffffffffffffffffffffffffffffffffffff1673ffffffffffffffffffffffffffffffffffffffff16815260200190815260200160002054905092915050565b610c46611194565b600073ffffffffffffffffffffffffffffffffffffffff168173ffffffffffffffffffffffffffffffffffffffff1603610cb5576040517f08c379a0000000000000000000000000000000000000000000000000000000008152600401610cac90611c32565b60405180910390fd5b610cbe81611535565b50565b600033905090565b600073ffffffffffffffffffffffffffffffffffffffff168373ffffffffffffffffffffffffffffffffffffffff1603610d38576040517f08c379a0000000000000000000000000000000000000000000000000000000008152600401610d2f90611cc4565b60405180910390fd5b600073ffffffffffffffffffffffffffffffffffffffff168273ffffffffffffffffffffffffffffffffffffffff1603610da7576040517f08c379a0000000000000000000000000000000000000000000000000000000008152600401610d9e90611d56565b60405180910390fd5b80600160008573ffffffffffffffffffffffffffffffffffffffff1673ffffffffffffffffffffffffffffffffffffffff16815260200190815260200160002060008473ffffffffffffffffffffffffffffffffffffffff1673ffffffffffffffffffffffffffffffffffffffff168152602001908152602001600020819055508173ffffffffffffffffffffffffffffffffffffffff168373ffffffffffffffffffffffffffffffffffffffff167f8c5be1e5ebec7d5bd14f71427d1e84f3dd0314c0f7b2291e5b200ac8c7c3b92583604051610e8591906117d5565b60405180910390a3505050565b6000610e9e8484610bb7565b90507fffffffffffffffffffffffffffffffffffffffffffffffffffffffffffffffff8114610f185781811015610f0a576040517f08c379a0000000000000000000000000000000000000000000000000000000008152600401610f0190611dc2565b60405180910390fd5b610f178484848403610cc9565b5b50505050565b600073ffffffffffffffffffffffffffffffffffffffff168373ffffffffffffffffffffffffffffffffffffffff1603610f8d576040517f08c379a0000000000000000000000000000000000000000000000000000000008152600401610f8490611e54565b60405180910390fd5b600073ffffffffffffffffffffffffffffffffffffffff168273ffffffffffffffffffffffffffffffffffffffff1603610ffc576040517f08c379a0000000000000000000000000000000000000000000000000000000008152600401610ff390611ee6565b60405180910390fd5b6110078383836115fb565b60008060008573ffffffffffffffffffffffffffffffffffffffff1673ffffffffffffffffffffffffffffffffffffffff1681526020019081526020016000205490508181101561108d576040517f08c379a000000000000000000000000000000000000000000000000000000000815260040161108490611f78565b60405180910390fd5b8181036000808673ffffffffffffffffffffffffffffffffffffffff1673ffffffffffffffffffffffffffffffffffffffff16815260200190815260200160002081905550816000808573ffffffffffffffffffffffffffffffffffffffff1673ffffffffffffffffffffffffffffffffffffffff168152602001908152602001600020600082825401925050819055508273ffffffffffffffffffffffffffffffffffffffff168473ffffffffffffffffffffffffffffffffffffffff167fddf252ad1be2c89b69c2b068fc378daa952ba7f163c4a11628f55a4df523b3ef8460405161117b91906117d5565b60405180910390a361118e848484611600565b50505050565b61119c610cc1565b73ffffffffffffffffffffffffffffffffffffffff166111ba61092f565b73ffffffffffffffffffffffffffffffffffffffff1614611210576040517f08c379a000000000000000000000000000000000000000000000000000000000815260040161120790611fe4565b60405180910390fd5b565b600073ffffffffffffffffffffffffffffffffffffffff168273ffffffffffffffffffffffffffffffffffffffff1603611281576040517f08c379a000000000000000000000000000000000000000000000000000000000815260040161127890612050565b60405180910390fd5b61128d600083836115fb565b806002600082825461129f9190611a68565b92505081905550806000808473ffffffffffffffffffffffffffffffffffffffff1673ffffffffffffffffffffffffffffffffffffffff168152602001908152602001600020600082825401925050819055508173ffffffffffffffffffffffffffffffffffffffff16600073ffffffffffffffffffffffffffffffffffffffff167fddf252ad1be2c89b69c2b068fc378daa952ba7f163c4a11628f55a4df523b3ef8360405161135091906117d5565b60405180910390a361136460008383611600565b5050565b600073ffffffffffffffffffffffffffffffffffffffff168273ffffffffffffffffffffffffffffffffffffffff16036113d7576040517f08c379a00000000000000000000000000000000000000000000000000000000081526004016113ce906120e2565b60405180910390fd5b6113e3826000836115fb565b60008060008473ffffffffffffffffffffffffffffffffffffffff1673ffffffffffffffffffffffffffffffffffffffff16815260200190815260200160002054905081811015611469576040517f08c379a000000000000000000000000000000000000000000000000000000000815260040161146090612174565b60405180910390fd5b8181036000808573ffffffffffffffffffffffffffffffffffffffff1673ffffffffffffffffffffffffffffffffffffffff1681526020019081526020016000208190555081600260008282540392505081905550600073ffffffffffffffffffffffffffffffffffffffff168373ffffffffffffffffffffffffffffffffffffffff167fddf252ad1be2c89b69c2b068fc378daa952ba7f163c4a11628f55a4df523b3ef8460405161151c91906117d5565b60405180910390a361153083600084611600565b505050565b6000600560009054906101000a900473ffffffffffffffffffffffffffffffffffffffff16905081600560006101000a81548173ffffffffffffffffffffffffffffffffffffffff021916908373ffffffffffffffffffffffffffffffffffffffff1602179055508173ffffffffffffffffffffffffffffffffffffffff168173ffffffffffffffffffffffffffffffffffffffff167f8be0079c531659141344cd1fd0a4f28419497f9722a3daafe3b4186f6b6457e060405160405180910390a35050565b505050565b505050565b600081519050919050565b600082825260208201905092915050565b60005b8381101561163f578082015181840152602081019050611624565b60008484015250505050565b6000601f19601f8301169050919050565b600061166782611605565b6116718185611610565b9350611681818560208601611621565b61168a8161164b565b840191505092915050565b600060208201905081810360008301526116af818461165c565b905092915050565b600080fd5b600073ffffffffffffffffffffffffffffffffffffffff82169050919050565b60006116e7826116bc565b9050919050565b6116f7816116dc565b811461170257600080fd5b50565b600081359050611714816116ee565b92915050565b6000819050919050565b61172d8161171a565b811461173857600080fd5b50565b60008135905061174a81611724565b92915050565b60008060408385031215611767576117666116b7565b5b600061177585828601611705565b92505060206117868582860161173b565b9150509250929050565b60008115159050919050565b6117a581611790565b82525050565b60006020820190506117c0600083018461179c565b92915050565b6117cf8161171a565b82525050565b60006020820190506117ea60008301846117c6565b92915050565b600080600060608486031215611809576118086116b7565b5b600061181786828701611705565b935050602061182886828701611705565b92505060406118398682870161173b565b9150509250925092565b600060ff82169050919050565b61185981611843565b82525050565b60006020820190506118746000830184611850565b92915050565b61188381611843565b811461188e57600080fd5b50565b6000813590506118a08161187a565b92915050565b6000602082840312156118bc576118bb6116b7565b5b60006118ca84828501611891565b91505092915050565b6000602082840312156118e9576118e86116b7565b5b60006118f78482850161173b565b91505092915050565b600060208284031215611916576119156116b7565b5b600061192484828501611705565b91505092915050565b611936816116dc565b82525050565b6000602082019050611951600083018461192d565b92915050565b6000806040838503121561196e5761196d6116b7565b5b600061197c85828601611705565b925050602061198d85828601611705565b9150509250929050565b7f4e487b7100000000000000000000000000000000000000000000000000000000600052602260045260246000fd5b600060028204905060018216806119de57607f821691505b6020821081036119f1576119f0611997565b5b50919050565b600081519050611a0681611724565b92915050565b600060208284031215611a2257611a216116b7565b5b6000611a30848285016119f7565b91505092915050565b7f4e487b7100000000000000000000000000000000000000000000000000000000600052601160045260246000fd5b6000611a738261171a565b9150611a7e8361171a565b9250828201905080821115611a9657611a95611a39565b5b92915050565b7f596f7520646f206e6f74206861766520656e6f75676820446567656e20546f6b60008201527f656e730000000000000000000000000000000000000000000000000000000000602082015250565b6000611af8602383611610565b9150611b0382611a9c565b604082019050919050565b60006020820190508181036000830152611b2781611aeb565b9050919050565b7f45524332303a2064656372656173656420616c6c6f77616e63652062656c6f7760008201527f207a65726f000000000000000000000000000000000000000000000000000000602082015250565b6000611b8a602583611610565b9150611b9582611b2e565b604082019050919050565b60006020820190508181036000830152611bb981611b7d565b9050919050565b7f4f776e61626c653a206e6577206f776e657220697320746865207a65726f206160008201527f6464726573730000000000000000000000000000000000000000000000000000602082015250565b6000611c1c602683611610565b9150611c2782611bc0565b604082019050919050565b60006020820190508181036000830152611c4b81611c0f565b9050919050565b7f45524332303a20617070726f76652066726f6d20746865207a65726f2061646460008201527f7265737300000000000000000000000000000000000000000000000000000000602082015250565b6000611cae602483611610565b9150611cb982611c52565b604082019050919050565b60006020820190508181036000830152611cdd81611ca1565b9050919050565b7f45524332303a20617070726f766520746f20746865207a65726f20616464726560008201527f7373000000000000000000000000000000000000000000000000000000000000602082015250565b6000611d40602283611610565b9150611d4b82611ce4565b604082019050919050565b60006020820190508181036000830152611d6f81611d33565b9050919050565b7f45524332303a20696e73756666696369656e7420616c6c6f77616e6365000000600082015250565b6000611dac601d83611610565b9150611db782611d76565b602082019050919050565b60006020820190508181036000830152611ddb81611d9f565b9050919050565b7f45524332303a207472616e736665722066726f6d20746865207a65726f20616460008201527f6472657373000000000000000000000000000000000000000000000000000000602082015250565b6000611e3e602583611610565b9150611e4982611de2565b604082019050919050565b60006020820190508181036000830152611e6d81611e31565b9050919050565b7f45524332303a207472616e7366657220746f20746865207a65726f206164647260008201527f6573730000000000000000000000000000000000000000000000000000000000602082015250565b6000611ed0602383611610565b9150611edb82611e74565b604082019050919050565b60006020820190508181036000830152611eff81611ec3565b9050919050565b7f45524332303a207472616e7366657220616d6f756e742065786365656473206260008201527f616c616e63650000000000000000000000000000000000000000000000000000602082015250565b6000611f62602683611610565b9150611f6d82611f06565b604082019050919050565b60006020820190508181036000830152611f9181611f55565b9050919050565b7f4f776e61626c653a2063616c6c6572206973206e6f7420746865206f776e6572600082015250565b6000611fce602083611610565b9150611fd982611f98565b602082019050919050565b60006020820190508181036000830152611ffd81611fc1565b9050919050565b7f45524332303a206d696e7420746f20746865207a65726f206164647265737300600082015250565b600061203a601f83611610565b915061204582612004565b602082019050919050565b600060208201905081810360008301526120698161202d565b9050919050565b7f45524332303a206275726e2066726f6d20746865207a65726f2061646472657360008201527f7300000000000000000000000000000000000000000000000000000000000000602082015250565b60006120cc602183611610565b91506120d782612070565b604082019050919050565b600060208201905081810360008301526120fb816120bf565b9050919050565b7f45524332303a206275726e20616d6f756e7420657863656564732062616c616e60008201527f6365000000000000000000000000000000000000000000000000000000000000602082015250565b600061215e602283611610565b915061216982612102565b604082019050919050565b6000602082019050818103600083015261218d81612151565b905091905056fe596f7520617265206e6f77207468652070726f7564206f776e6572206f66205468652063756265206f6620626c69737321596f7520617265206e6f77207468652070726f7564206f776e6572206f6620447261676f6e27732062726561746821596f7520617265206e6f77207468652070726f7564206f776e6572206f66205468652073776f7264206f662056616c6b7972696521596f7520617265206e6f77207468652070726f7564206f776e6572206f66204f6666696369616c20646567656e204e465421a26469706673582212209525969db292633949818e902c314a2525e97a8584b5d137324e7a2e1e30e5c864736f6c6343000812003354686520666f6c6c6f77696e67206974656d732061726520617661696c61626c6520746f2062652072656465656d656420666f7220746f6b656e733b2031204f6666696369616c20646567656e204e4654283130302044474e292032205468652073776f7264206f662056616c6b79726965283230302044474e292033205468652063756265206f6620626c697373283330302044474e29203420447261676f6e277320627265617468283430302044474e29",
  "linkReferences": {},
  "deployedLinkReferences": {}
}